:1081000090E8037480F0909000743FF0A37406F040
:10811000A3745BF0A3744FF0A37466F0A3746DF0C6
:10812000A3747DF0A37407F0A3747FF0A3746FF0C1
:108130007D0090E8027408F09090008D82E090E855
:1081400001F0780A9090007A7FA982E090E800F030
:1081500090E8027402F07B207C37DCFEDBFA90E8CA
:10816000027408F09090008D82E090E800F07B208F
:108170007C37DCFEDBFADAD19090008982A3D8C785
:0A8180000DED75F00384ADF080A84A
:00000001FF
